:020000023000CC
:1000000000400420E50103006102030065020300D3
:100010005D0203005D0203005D02030000000000BA
:100020000000000000000000000000006902030062
:100030005D020300000000006D0203007102030076
:1000400075020300790203007D02030081020300B0
:1000500085020300890203008D0203009102030060
:1000600095020300990203009D020300A102030010
:10007000D52C0300A9020300AD020300B102030066
:10008000B5020300B9020300BD020300C102030070
:10009000C5020300C9020300CD020300D102030020
:1000A000D5020300D9020300DD020300E1020300D0
:1000B000E5020300E9020300ED020300F102030080
:1000C000F5020300F9020300FD020300010303002F
:1000D00005030300090303000D03030011030300DC
:1000E00015030300190303001D030300210303008C
:1000F00025030300290303002D030300310303003C
:1001000035030300390303003D03030041030300EB
:1001100045030300490303004D030300510303009B
:1001200055030300590303005D030300610303004B
:1001300010B5054C237833B9044B13B1044800E0E3
:1001400000BF0123237010BDB02202200000000078
:100150006473030008B5034B1BB10349034800E077
:1001600000BF08BD00000000B42202206473030039
:10017000154B002B08BF134B9D46A3F5803A002179
:100180008B460F461348144A121A06F0EAF80F4B32
:10019000002B00D098470E4B002B00D09847002032
:1001A000002104000D000D48002802D00C4801F089
:1001B0004FFD06F087F82000290001F089FD01F0CD
:1001C00044FD00BF000008000040042000000000C3
:1001D000C11C0300B022022070690220511C0300E0
:1001E00000000000124880471249134A134B9A42FC
:1001F000BEBF51F8040B42F8040BF8E71049114A4E
:1002000000209142BCBF41F8040BFAE700200E49E0
:100210000E4A9142BCBF41F8040BFAE70C490D4A63
:100220009142BCBF41F8040BFAE762B60A48804726
:1002300095200300D873030000220220B022022080
:10024000B022022070690220706902200030042070
:10025000003004200040042071010300FFF7FEBFBE
:100260004048004740480047404800474048004752
:100270004048004740480047404800474048004742
:100280004048004740480047404800474048004732
:100290004048004740480047404800474048004722
:1002A0004048004740480047404800474048004712
:1002B0004048004740480047404800474048004702
:1002C00040480047404800474048004740480047F2
:1002D00040480047404800474048004740480047E2
:1002E00040480047404800474048004740480047D2
:1002F00040480047404800474048004740480047C2
:1003000040480047404800474048004740480047B1
:1003100040480047404800474048004740480047A1
:100320004048004740480047404800474048004791
:100330004048004740480047404800474048004781
:100340004048004740480047404800474048004771
:100350004048004740480047404800474048004761
:100360004048004761020300650203006902030080
:100370006D020300710203005D020300B528030053
:10038000352A0300512A0300292B0300552B0300B3
:10039000812B0300AD2B0300E13503005D02030058
:1003A000D1270300D72703005D020300E3270300E2
:1003B000752903008D290300A5290300BD29030029
:1003C000D5290300ED290300052A03001D2A030097
:1003D0005D0203005D0203005D0203005D02030095
:1003E0005D0203005D0203005D0203005D02030085
:1003F0005D0203005D020300D92B0300052C0300FE
:10040000312C03005D2C0300DD270300E9270300E6
:10041000A92A03005D0203005D0203005D020300E0
:10042000793403005D0203005D0203005D020300F6
:100430005D0203005D0203005D0203005D02030034
:10044000D12A0300FD2A03005D0203005D020300C0
:100450005D0203005D0203005D0203005D02030014
:10046000C12803005D02030010F8012B11F8013BC5
:10047000012A28BF9A42F7D0D01A704781F0004174
:1004800002E000BF83F0004330B54FEA41044FEA79
:10049000430594EA050F08BF90EA020F1FBF54EA14
:1004A000000C55EA020C7FEA645C7FEA655C00F0B0
:1004B000E2804FEA5454D4EB5555B8BF6D420CDD81
:1004C0002C4480EA020281EA030382EA000083EA04
:1004D000010180EA020281EA0303362D88BF30BDA4
:1004E00011F0004F4FEA01314FF4801C4CEA1131FA
:1004F00002D0404261EB410113F0004F4FEA033359
:100500004CEA133302D0524263EB430394EA050FE3
:1005100000F0A780A4F10104D5F1200E0DDB02FA52
:100520000EFC22FA05F2801841F1000103FA0EF2E6
:10053000801843FA05F359410EE0A5F120050EF1AC
:10054000200E012A03FA0EFC28BF4CF0020C43FADD
:1005500005F3C01851EBE37101F0004507D54FF0EA
:10056000000EDCF1000C7EEB00006EEB0101B1F53A
:10057000801F1BD3B1F5001F0CD349085FEA300080
:100580004FEA3C0C04F101044FEA445212F5800F8B
:1005900080F09A80BCF1004F08BF5FEA500C50F128
:1005A000000041EB045141EA050130BD5FEA4C0C0B
:1005B000404141EB010111F4801FA4F10104E9D194
:1005C00091F0000F04BF01460020B1FA81F308BF8B
:1005D0002033A3F10B03B3F120020CDA0C3208DD57
:1005E00002F1140CC2F10C0201FA0CF021FA02F132
:1005F0000CE002F11402D8BFC2F1200C01FA02F1A2
:1006000020FA0CFCDCBF41EA0C019040E41AA2BFC6
:1006100001EB0451294330BD6FEA04041F3C1CDA8E
:100620000C340EDC04F11404C4F1200220FA04F0AE
:1006300001FA02F340EA030021FA04F345EA030158
:1006400030BDC4F10C04C4F1200220FA02F001FA1A
:1006500004F340EA0300294630BD21FA04F029469C
:1006600030BD94F0000F83F4801306BF81F4801135
:100670000134013D4EE77FEA645C18BF7FEA655CA8
:1006800029D094EA050F08BF90EA020F05D054EA7A
:10069000000C04BF1946104630BD91EA030F1EBF7F
:1006A0000021002030BD5FEA545C05D14000494183
:1006B00028BF41F0004130BD14F580043CBF01F576
:1006C000801130BD01F0004545F0FE4141F470015C
:1006D0004FF0000030BD7FEA645C1ABF1946104637
:1006E0007FEA655C1CBF0B46024650EA013406BF38
:1006F00052EA033591EA030F41F4002130BD00BFF7
:1007000090F0000F04BF0021704730B54FF48064B3
:1007100004F132044FF000054FF0000150E700BF34
:1007200090F0000F04BF0021704730B54FF4806493
:1007300004F1320410F0004548BF40424FF0000180
:100740003EE700BF42004FEAE2014FEA31014FEAC3
:1007500002701FBF12F07F4393F07F4F81F0605112
:10076000704732F07F4208BF704793F07F4F04BF5D
:1007700041F40021704730B54FF4607401F000453A
:1007800021F000411CE700BF50EA010208BF70479A
:1007900030B54FF000050AE050EA010208BF70478B
:1007A00030B511F0004502D5404261EB41014FF4F4
:1007B000806404F132045FEA915C3FF4D8AE4FF0FC
:1007C00003025FEADC0C18BF03325FEADC0C18BFDF
:1007D000033202EBDC02C2F1200300FA03FC20FA30
:1007E00002F001FA03FE40EA0E0021FA02F114447D
:1007F000BDE600BF70B54FF0FF0C4CF4E06C1CEA96
:1008000011541DBF1CEA135594EA0C0F95EA0C0F06
:1008100000F0DEF82C4481EA030621EA4C5123EA79
:100820004C5350EA013518BF52EA033541F48011A8
:1008300043F4801338D0A0FB02CE4FF00005E1FB5B
:1008400002E506F00042E0FB03E54FF00006E1FBA5
:1008500003569CF0000F18BF4EF0010EA4F1FF04E8
:10086000B6F5007F64F5407404D25FEA4E0E6D4128
:1008700046EB060642EAC62141EA55514FEAC52039
:1008800040EA5E504FEACE2EB4F1FD0C88BFBCF5B5
:10089000E06F1ED8BEF1004F08BF5FEA500E50F166
:1008A000000041EB045170BD06F0004646EA01012C
:1008B00040EA020081EA0301B4EB5C04C2BFD4EB5E
:1008C0000C0541EA045170BD41F480114FF0000E57
:1008D000013C00F3AB8014F1360FDEBF002001F0C5
:1008E000004170BDC4F10004203C35DA0C341BDC3F
:1008F00004F11404C4F1200500FA05F320FA04F011
:1009000001FA05F240EA020001F0004221F0004144
:1009100010EBD37021FA04F642EB06015EEA430EB7
:1009200008BF20EAD37070BDC4F10C04C4F12005E7
:1009300000FA04F320FA05F001FA04F240EA02009A
:1009400001F0004110EBD37041F100015EEA430E6B
:1009500008BF20EAD37070BDC4F1200500FA05F28B
:100960004EEA020E20FA04F301FA05F243EA02030A
:1009700021FA04F001F0004121FA04F220EA020019
:1009800000EBD3705EEA430E08BF20EAD37070BD5F
:1009900094F0000F0FD101F00046400041EB01013F
:1009A00011F4801F08BF013CF7D041EA060195F021
:1009B000000F18BF704703F00046520043EB0303DB
:1009C00013F4801F08BF013DF7D043EA06037047C8
:1009D00094EA0C0F0CEA135518BF95EA0C0F0CD0D3
:1009E00050EA410618BF52EA4306D1D181EA030119
:1009F00001F000414FF0000070BD50EA410606BF13
:100A00001046194652EA430619D094EA0C0F02D157
:100A100050EA013613D195EA0C0F05D152EA03369C
:100A20001CBF104619460AD181EA030101F00041BA
:100A300041F0FE4141F470014FF0000070BD41F003
:100A4000FE4141F4780170BD70B54FF0FF0C4CF4DD
:100A5000E06C1CEA11541DBF1CEA135594EA0C0FFC
:100A600095EA0C0F00F0A7F8A4EB050481EA030E49
:100A700052EA03354FEA013100F088804FEA033330
:100A80004FF0805545EA131343EA12634FEA0222FE
:100A900045EA111545EA10654FEA00260EF00041BF
:100AA0009D4208BF964244F1FD0404F5407402D211
:100AB0005B084FEA3202B61A65EB03055B084FEAA2
:100AC00032024FF480104FF4002CB6EB020E75EB9F
:100AD000030E22BFB61A754640EA0C005B084FEAC7
:100AE0003202B6EB020E75EB030E22BFB61A754644
:100AF00040EA5C005B084FEA3202B6EB020E75EB8F
:100B0000030E22BFB61A754640EA9C005B084FEA06
:100B10003202B6EB020E75EB030E22BFB61A754613
:100B200040EADC0055EA060E18D04FEA051545EA02
:100B300016754FEA06164FEAC30343EA52734FEAAB
:100B4000C2025FEA1C1CC0D111F4801F0BD141EA24
:100B500000014FF000004FF0004CB6E711F4801F89
:100B600004BF01430020B4F1FD0C88BFBCF5E06F69
:100B70003FF6AFAEB5EB030C04BFB6EB020C5FEA79
:100B8000500C50F1000041EB045170BD0EF0004ECE
:100B90004EEA113114EB5C04C2BFD4EB0C0541EA00
:100BA000045170BD41F480114FF0000E013C90E6FD
:100BB00045EA060E8DE60CEA135594EA0C0F08BFC1
:100BC00095EA0C0F3FF43BAF94EA0C0F0AD150EAC0
:100BD00001347FF434AF95EA0C0F7FF425AF104653
:100BE00019462CE795EA0C0F06D152EA03353FF47B
:100BF000FDAE1046194622E750EA410618BF52EAF8
:100C000043067FF4C5AE50EA41047FF40DAF52EACB
:100C100043057FF4EBAE12E74FEA4102B2F1E04345
:100C200024BFB3F5001CDCF1FE5C0DD901F0004CD3
:100C30004FEAC0024CEA5070B2F1004F40EB830023
:100C400008BF20F00100704711F0804F21D113F14F
:100C50003872BCBF01F00040704741F480114FEA88
:100C60005252C2F11802C2F1200C10FA0CF320FA11
:100C700002F018BF40F001004FEAC1234FEAD3232E
:100C800003FA0CFC40EA0C0023FA02F34FEA430398
:100C9000CCE77FEA625307D150EA01331EBF4FF021
:100CA000FE4040F44000704701F0004040F0FE403C
:100CB00040F40000704700BF53B94AB9002908BF8B
:100CC00000281CBF4FF0FF314FF0FF3000F070B92B
:100CD000ADF1080C6DE904CE00F006F8DDF804E093
:100CE000DDE9022304B070472DE9F04F099E044668
:100CF0008946002B40F083808A42154645D9B2FAD6
:100D000082F24AB1C2F1200701FA02F39540944001
:100D100020FA07F747EA03094FEA154E230C1FFA9A
:100D200085F8B9FBFEFC0EFB1C990CFB08F143EAAD
:100D3000094399420AD9EB182CBF0120002099429F
:100D400002D9002800F01D810CF1FF3C591AA3B212
:100D5000B1FBFEF00EFB101100FB08F843EA014462
:100D6000A04505D92C1902D2A04500F20E81013808
:100D7000A4EB080440EA0C4000271EB1D440002335
:100D8000C6E900433946BDE8F08F002A51D0B2FAD7
:100D900082F2002A40F0AF80491B4FEA154E1FFA3D
:100DA00085F80127230CB1FBFEFC0EFB1C1108FB90
:100DB0000CF043EA014398420AD9EB182CBF0121F9
:100DC0000021984202D9002900F0D7800CF1FF3CA5
:100DD000191AA3B2B1FBFEF00EFB101108FB00F8CC
:100DE00043EA0144A04505D92C1902D2A04500F2DE
:100DF000C1800138A4EB080440EA0C40BDE78B42F7
:100E000008D9002E74D00027C6E9000138463946BB
:100E1000BDE8F08FB3FA83F767B98B42C0F0A480C6
:100E2000824240F2A1803846002EABD0C6E900498C
:100E3000A8E7FFDEC7F12005BB4002FA07FC01FA74
:100E400007F4EA4020FA05F8E94000FA07FE1A43E1
:100E500048EA04044FEA1248200C1FFA82F9B1FB59
:100E6000F8FA08FB1A110AFB09FB40EA01418B451D
:100E70000AD951182CBF012300238B4502D9002B1E
:100E800000F088800AF1FF3AA1EB0B01A4B2B1FB9C
:100E9000F8F008FB101100FB09F944EA014189450B
:100EA00004D9511801D289457BD8013840EA0A405B
:100EB000A1EB0901A0FB0C89494544464B4602D3EE
:100EC00006D1C64504D20138B8EB0C0469EB020325
:100ED000002E5DD0BEEB040261EB030101FA05F5C3
:100EE00022FA07F3F94000271D43C6E9005149E7FC
:100EF0003746304646E7C2F12000954001FA02F736
:100F000021FA00F34FEA154E24FA00F11FFA85F892
:100F100094403943B3FBFEF00F0C0EFB103300FB83
:100F200008FC47EA03439C4507D9EB182CBF01276F
:100F300000279C4500D98FB30138A3EB0C0389B27D
:100F4000B3FBFEF70EFB173307FB08FC41EA034136
:100F50008C4504D9691801D28C4525D8013FA1EBF5
:100F60000C0147EA00471DE7841A61EB03030120E7
:100F7000994659E702382C443CE7ACF1020C2B446B
:100F800026E7ACF1020C2B44E0E602382C44EFE6F5
:100F90003746F7E6AAF1020A114475E702382B44F6
:100FA000CBE70238114481E7023F2944D7E700BF6D
:100FB000704700BF002070472DE9F0479A4603684C
:100FC000154604469B6ADDE90867984702460B46CA
:100FD00028465146FFF770FE134302D00020BDE8BB
:100FE000F087236820469B6A984702460B463046A6
:100FF0003946FFF761FE1343F0D115EB060823686D
:1010000020464AEB07099B6B9847494508BF404576
:101010002CBF01200020E2E72DE9F0479A46036843
:10102000154604465B6ADDE90867984702460B46A9
:1010300028465146FFF740FE134302D00020BDE88A
:10104000F087236820465B6A984702460B46304685
:101050003946FFF731FE1343F0D115EB060823683C
:1010600020464AEB07099B6B9847494508BF404516
:101070002CBF01200020E2E77047704702F0BEBAA3
:1010800002F0C9BA02F0CABA02F0CBBA036823B9B7
:10109000036813B900F108030360184670470000A5
:1010A00070B50B4E05463046FFF7F0FF284606F0B8
:1010B00077F90446284602F0ABFA00F0E5FD6860D7
:1010C0003046FFF7E3FF201C18BF0120404270BDEF
:1010D000D022022038B505460948FFF7D7FF284639
:1010E00002F08AFA003018BF01204442686808B153
:1010F00000F0CEFD0248FFF7C9FF204638BD00BF13
:10110000D02202202DE9F0410A4C0F461646054632
:1011100098462046FFF7BAFF3A46434631462846EE
:1011200006F046F905462046FFF7B0FF2846BDE821
:10113000F08100BFD0220220024B0A4600211B682A
:10114000184700BF042202206C22002105F009B9D3
:1011500010B16C21FFF7F0BF704700000023C0E919
:101160000033C1B9194A1A4BDFF88CC0C0E9022319
:10117000184B194AC0E904C3184BC0E90623184BA1
:10118000036203F17453A3F52303A3F6924343626E
:10119000816600207047134B134ADFF860C0C0E936
:1011A000022303F1794303F5740303F5016303613B
:1011B0000E4BC0E905C303F1D14303F5C01303F59A
:1011C0001E63C3610A4B03620A4BE0E767E6096AE4
:1011D00085AE67BB3AF54FA57F520E518C68059BD3
:1011E000ABD9831F07D57C36D89E05C1310BC0FF14
:1011F000A78FF964A44FFABE72F36E3C39590EF70B
:10120000FFF7ACBF2DE9F04F00F10803D1B0019317
:1012100008AA00F1280310460593019B53F8044BDC
:1012200040F8044B059CA342F8D1D36910AE156970
:101230004FF000090493D2E9053ED2E9004C029335
:1012400093680393D3680693424B0793B9F10F0F4A
:1012500067D84B7891F800A01B0491F8028043EA0C
:101260000A6391F803A043EA0A0343EA08234FEA1A
:10127000F52A029F46F8043B44EA0C088AEAB51AAC
:1012800004EA0C0B09F1010904318AEA75608EEA5F
:10129000070A079FB9F1400F0AEA050A8AEA0E0A0F
:1012A000824457F8040B8244049807975344039FE1
:1012B000CDF810E00344069808EA0708069718449A
:1012C00048EA0B0882464FEA743080EAB40080EAAC
:1012D000B450804443441BD10299CDF83CE0CDF892
:1012E00030A0CDF828C00B97CDE90D51CDE90834D9
:1012F000019B52F8041B1B680B44019941F8043B05
:10130000059B01918B42F3D1002051B0BDE8F08FD5
:10131000CDF80CC0A446DDF808E01C460295554601
:1013200094E756F8083C56F83C0C4FEAF34856F858
:10133000407C4FEAB04B88EA73488BEAF01B88EA9E
:10134000932856F81C3C3B4498448BEAD003434412
:101350008DE700BF246903002DE9F84305460F46D9
:10136000144612B90020BDE8F883036803F03F0675
:10137000D318036022BF436801334360A6B1C6F1AE
:1013800040094A4510D300F128084A4608EB0600F8
:1013900004F0DAFF41462846FFF734FF0028E2D187
:1013A00034444F440646403C274405E02846FFF7B6
:1013B00029FF0028D7D1403C3F2CA7EB0401F5D8EA
:1013C000002CCFD005F128002246304404F0BCFFA9
:1013D000C8E7FFF7C1BF036803F03F035A1C03448B
:1013E00070B5382A0D4600F128064FF080010446FA
:1013F00083F8281006EB020061D8C2F13802002100
:1014000004F0AFFF2046D4E900315A0FDB0042EA76
:10141000C10231461BBA12BA63662266FFF7F2FEBA
:1014200000284BD1E37A2B7063896B70A3681B0A89
:10143000AB70A368EB70E37B2B71E3896B71E3689E
:101440001B0AAB71E368EB71E37C2B72638A6B72EE
:1014500023691B0AAB722369EB72E37D2B73E38A6A
:101460006B7363691B0AAB736369EB73E37E2B7465
:10147000638B6B74A3691B0AAB74A369EB74E37F82
:101480002B75E38B6B75E3691B0AAB75E369EB7531
:1014900094F823302B76638C6B76236A1B0AAB7629
:1014A000236AEB76A36E4BB994F827302B77E38C45
:1014B0006B77636A1B0AAB77636AEB7770BD0021B9
:1014C000C2F1400204F04DFF31462046FFF79AFE7C
:1014D0000028F3D101463822304691E7FFF77BBF61
:1014E00001682DE9F04717469846096B0646DDE985
:1014F000089A884702460B4638464146FFF7DCFB10
:10150000134302D00020BDE8F08717EB09043368CD
:10151000304648EB0A0514F1FF32196B45F1FF33F1
:10152000884702460B4620462946FFF7C5FB134372
:10153000E8D1336830469B6B9847A94208BFA04268
:101540002CBF01200020DEE74FF0FF30704707235B
:101550000022012110B5C4074FEA500044BF01FA30
:1015600003F4224313F1FF33F5D2104610BD0000FF
:101570002DE9F04F8BB0904605460C460DF1180949
:1015800002A89A46FFF778FD10220021484604F091
:10159000E8FEB8F1000F0AD15F4E604802F008FC87
:1015A00002A8FFF76AFD30460BB0BDE8F08F02A835
:1015B000FFF776FD064628B10146594802F0F8FBD0
:1015C000584EEDE7294602A8FFF758FD05F18F03B5
:1015D0009C420BD25448504E02F0EAFB4E4953480D
:1015E00002F0E6FB02A8FFF775FDD9E702A8FFF7B6
:1015F00047FD074602A8FFF745FD38448442E9D875
:10160000631C5C1B6708B74205EB060104D902A8FE
:10161000FFF734FD0644F6E7A41B00270891099460
:10162000CDE9065602A8FFF72FFD59F83720082309
:101630000446403204A90DEB0300FFF763FD38B9FF
:1016400004AB13F8012B944232D101300828F8D1B1
:1016500027BB0127E6E7DDE900239D4208BF94424E
:1016600022D208EB04021078FFF771FF08228BEA00
:10167000006B59464FEA4B0B013A0029BFBF8BF074
:10168000986B8BF48E3B8BF4DB7B8BF0010B12F0B1
:10169000FF02EED1013445F10005DCE7244925487D
:1016A00002F086FB224E9DE7059A5A459AD0CFE775
:1016B000149BBDF812400BB1149B1C60A245C7D30C
:1016C000234659F83720414602A8FFF71BFD06467E
:1016D0000028BDD1A2B20023002400254FF0FF3B1B
:1016E000CDE90023144A002AB5D0DDE900239D424C
:1016F00008BF9442D8D208EB04010878FFF727FF0F
:101700000D4A80EA1B600134C0B245F1000552F871
:10171000201081EA0B2BE8E70101FF80246A030017
:10172000476A03000F01FF806F6A0300AA6A030083
:101730000701FF80DB6A0300246503002DE9F347FE
:10174000064668468846FFF797FC48490846FEF774
:101750008BFE70B94FF414234FF47050336033682C
:101760000344C8F80030336883B968B94FF0010901
:1017700010E03F493D48FEF777FE08B93060EEE7DC
:101780003C493A48FEF770FE3B4C4BE00028FBD04A
:101790004FF000096846FFF783FC0446002863D138
:1017A000364D37482844374D451B68462946FFF7D4
:1017B00065FC82466846FFF763FC07466846FFF70C
:1017C00061FC0744B9F1000F33D1356868462946FA
:1017D000FFF754FC23460246814621462846FFF780
:1017E0006BFAD8F8005000FB09F96846691EFFF74C
:1017F00045FC00218246024615F1FF30234641F1A7
:10180000FF31FFF759FA336800FB0AAA4B4505D1AF
:10181000D8F80030534501D1BB4221D91A4C684653
:10182000FFF758FC6846FFF728FC204602B0BDE8E9
:10183000F087791E6846FFF721FC0021A7EB4009DD
:1018400015F1FF305246234641F1FF31FFF734FADC
:1018500000FB0AAAD145E1D3C6F80090C8F8007091
:101860006846FFF737FCDDE7084CDBE70C6B03004D
:10187000176B0300246B03000901FF80D87303007A
:10188000B0220220002202200601FF800F01FF800B
:10189000EFF3108372B6054A117831B9DB4304497E
:1018A00003F001030B70012313707047E122022043
:1018B000E0220220034B00221A70034B1B7803B175
:1018C00062B67047E1220220E022022070B50E4687
:1018D0000446154600F031FA013609D020460021B1
:1018E00000F038FA29462046BDE8704000F02EBAD4
:1018F00070BD0222FFF7EABF70B50E4604461546DA
:1019000000F01BFA01360DD02946204600F044FABB
:101910002046012100F01EFA20460021BDE870405B
:1019200000F014BA70BD0022FFF7E6BF13B50446FD
:1019300001300FD102B010BDA3420AD12046896800
:1019400000F04AFA0021204602B0BDE8104000F045
:1019500081BA0C3191F900305A1CEDD10023224696
:1019600002480093194600F041F900BF30010180A0
:10197000884207B502460AD0431C08D0013105D081
:10198000002305480093194600F030F90146084647
:1019900003B05DF804FB00BF3001018091F9003015
:1019A0005A1C01D118467047834201D148687047DC
:1019B0000C31F3E7431C07B50AD0FFF7EFFF431CD8
:1019C00006D10023024604480093194600F00EF9A0
:1019D00003B05DF804FB00BF300101800346012223
:1019E000D3E84F0FC3E8412FC0B20029F8D17047A8
:1019F000D0E84F3FC0E8421FD8B2704704F008BD9E
:101A000004F0B8BCF0B572B60023224A4FF0FF369E
:101A1000214F13604FF0E0221D46516801F00F0185
:101A200001319A004FEAC30C02F1604202F56142B3
:101A3000C2F88060C2F88061002202EB0C0401321F
:101A40003C44082A84F80053F7D101339942E8DC7A
:101A5000124B4FF020625A6040F2FA529860DA60FE
:101A600000221D6111469C1801320C2A2176FAD100
:101A70004FF0FF3259629A62094ADA621F221A63F2
:101A8000D0E90031002282F314889D4682F3108849
:101A90000847F0BD10E000E000E100E000ED00E0EC
:101AA000020000C007B5154D00F038F8262101A846
:101AB000FFF739FF0424012101A800F06DF9284641
:101AC00000F020F9002101A800F066F9284600F096
:101AD00019F9013CEFD10424094E012101A800F0BD
:101AE0005BF9304600F00EF9002101A800F054F92E
:101AF000304600F007F9013CEFD1DBE7F049020086
:101B0000801A0600EFF31080C04300F00100704718
:101B1000EFF30580003018BF0120704708B5FFF7CC
:101B2000B7FE024A13680133136008BDE4220220A5
:101B3000044A136823B1013B13600BB9FFF7BABE27
:101B4000704700BFE422022008B50B48FFF746FFAC
:101B500028B1FFF7E3FFBFF34F8F20BFFDE7FFF78B
:101B6000D7FF08B1FFF79EFFFFF7CCFF0028F9D0A1
:101B7000012000F06AF800BF2823022070B5164C3F
:101B80008EB00D46164634EA200428BF044634229F
:101B9000002101A804F0E5FB0395CDE90146FFF71C
:101BA000BDFF0E4A13680133012B136004D13422A8
:101BB00001A90B4804F0C8FB342201A9094804F02C
:101BC000C3FB094B1B680BB106489847FFF7B0FFF2
:101BD00000200EB070BD00BF0101FF80E82202208E
:101BE000F42202202C230220EC22022008B5044615
:101BF0000121064876461546FFF7FAFE20B932461F
:101C000029462046FFF7BAFFFFF79EFFF022022089
:101C1000074A084913681844884283BF064B0C22C0
:101C20004FF0FF3010608CBF1A601846704700BF3D
:101C300008220220003004206869022008B508B19B
:101C4000FFF730FFFEE70120704708B5FFF7F6FF0A
:101C5000012070477047704708B5FFF7FBFF08BDCC
:101C600008B5FFF7F8FF08BD13B5044604F04EFBB6
:101C7000034628B90090014622460248FFF7B6FF06
:101C800002B010BD1F010180FFF7EEBF04F046BB9C
:101C900004F044BB70477047074B0022074930B53A
:101CA00008469D68AC580432B2F5987F40F8044B62
:101CB000F8D1996030BD00BF00ED00E000200220A7
:101CC00008B5FFF7E9FF00F0D5F9FFF7E4FF08BD1D
:101CD00008B5FFF7DFFFBDE8084004F06FB800006B
:101CE000054B064A1B68B3FBF2F3584340F6B83382
:101CF000B0FBF3F0024B18470C22022040420F00C9
:101D0000316B030010B50446B4F5806F08DC002C7D
:101D10000DDD4FF47A706043BDE81040FFF7E0BF7F
:101D20004FF47A20A4F58064FFF7DAFFECE710BDEA
:101D30004FF47A735843FFF7E5BF4A1C0B46017016
:101D400003D00021184600F047B8704790F9000012
:101D500000F080B890F9003003F01F00002BB8BFEE
:101D60001F33C3F3471311B101290CD070479B00F7
:101D7000012103F18043814003F50E231A6822EA12
:101D80000101196070479B00814003F1804303F516
:101D90000E231A681143F4E790F90030C9B203F03A
:101DA0001F02002BB8BF1F3303F4FF5303F180431E
:101DB00003F50C239954704790F9003003F01F028B
:101DC000002BB8BF1F3303F4FF5303F1804303F527
:101DD0000C23985C7047000030B51C4D85B003465D
:101DE0000C46286801AA696804F00F0403C2A868B9
:101DF00004A90125106003F01F02002BB8BF1F3398
:101E0000C3F3471301EB430102EB431331F80C1CFE
:101E1000080AC9B2883005FA01F14FF0804545F84B
:101E200020104FF40051C5F82012094951F8232021
:101E300042F4807241F8232051F8232022F00F024F
:101E4000144341F8234005B030BD00BFE4640300F3
:101E50000010004010B500F01F0400280C4AB8BF65
:101E60001F30012900F4FF5000EB040352F8233027
:101E700023F0300305D0022906D0204442F8203058
:101E800010BD43F01003F8E743F02003F5E700BF6F
:101E900000100040F0B50E46154685B004463C499A
:101EA0003046FFF787FD07463A492846FFF782FD8F
:101EB00001463846FFF75CFD206007280CD8DFE8B4
:101EC00000F0043D43494F555B614FF4457000F00D
:101ED0002BF9314800F0F5FE01A801F0D9FA4FF4D2
:101EE0001653206801A9019340F201132B4AADF863
:101EF0000C302B4B53F8200001F00AFB24493046EC
:101F0000FFF714FD23492846FFF710FD721C03D08C
:101F100002213046FFF79EFF6B1C03D002212846AA
:101F2000FFF798FF23683BB901221E4B21461E484C
:101F30001A60042204F008FA05B0F0BD40F2153032
:101F400000F0F2F81948C5E740F2163000F0ECF85E
:101F50001748BFE740F2173000F0E6F81548B9E738
:101F60004FF4467000F0E0F81348B3E740F2193040
:101F700000F0DAF81148ADE740F21A3000F0D4F87A
:101F80000F48A7E740F21B3000F0CEF80D48A1E75C
:101F90008C6B03005C6B03000B000100001BB7009F
:101FA0003C6B030060230220642702200C00010028
:101FB0000D0001000E0001000F00010010000100E3
:101FC00011000100120001000068034B034A53F89E
:101FD000200001F06CBA00BF3C6B0300001BB7008F
:101FE0000268044B53F82230D3F8040E00F02000AE
:101FF000704700BF3C6B030010B504462046FFF756
:10200000EFFF0028FAD02268C9B2034B53F8223000
:10201000C3F8201E10BD00BF3C6B030038B50F4B4A
:1020200020250F4CC3F8C8500E4800F095F80E4814
:1020300000F07AF8204600F08FF8204604F02EF9E0
:10204000204600F0BDF800220121284600F072F879
:10205000064800F069F8064B1C6038BD00000240DD
:1020600000D8B805001BB7000891100008941000B4
:102070000C220220FFF7D2BF08B54FF4937000F096
:1020800053F801222F201146BDE8084000F052B855
:102090007047000008B5114BD3F8882042F4700255
:1020A000C3F88820D3F8882042F00F02C3F88820B4
:1020B000D3F88C2042F4406242F00302C3F88C2033
:1020C000074A9A604FF080430022C3F80823782221
:1020D000C3F82022FFF7DCFF08BD00BF00ED00E0E1
:1020E0000000030010B502210E4CC0B1C0F30B0379
:1020F0008BB1DAB21B0A3F2A03F1FF330CBFD4F8CD
:1021000098209200DBB215BF02F180421343C2F85F
:102110006032C4F8983001294FEA203000D110BD58
:102120000121E2E700000240B0F1004F01D0FFF7CB
:10213000D9BF7047800000F180401AB14FF00053C2
:10214000C0F8003321B94FF08043C0F80033704726
:102150000139C0F800137047154B984205D0154B54
:10216000984202D0144B984220D14FF080434FF058
:102170000062C3F84821C3F8282203F50033202267
:10218000C3F8C8200C4B98420C4B05D11A6942F099
:1021900080421A6100207047064A90421A6902D1B3
:1021A00042F40042F5E742F48042F2E70120704732
:1021B000001BB700006CDC0200D8B80500300140FD
:1021C00007EE900AF8EE677A08B517EE900AFEF768
:1021D000B9FA0DA3D3E90023FEF70CFBFEF71CFDB3
:1021E00007EE900A4FF08042FCEEE77AD2F8003416
:1021F00017EE900A23F4F833082828BF082043EA92
:102200000030C2F8000408BDC19D76BEC028783EEB
:10221000034B186A10F400001CBF024B186870478B
:102220000030014010220220074BD3F8B8309B0643
:1022300007D4064B06481B6913F4804F08BF0020E3
:1022400070470020704700BF00000240003001408E
:10225000001BB7004FF080430348D3F8183A13F03F
:10226000400F08BF0020704740420F00034B186A20
:1022700010F080701CBF024B18687047003001409E
:102280001022022008B5FFF7E5FF4FF08043D3F896
:102290008C3303F03F030133B0FBF3F008BD0000C3
:1022A000074BD3F8B8309B0607D4064B06481B698A
:1022B00013F0804F08BF002070470020704700BF18
:1022C000000002400030014000D8B80508B54FF0CA
:1022D0008043D3F8E0325BB1012B0CD000204FF0EB
:1022E0008043D3F8AC33DBB20133B0FBF3F008BD6D
:1022F000FFF7D6FFF3E7014B1868F0E768230220E9
:10230000074BD3F8B820D3F89820D3F8B820D3F8E7
:10231000983013F0010F14BF4FF4004000207047B5
:10232000000002404FF08043D3F8840201281BD004
:1023300018B103281BD000207047D3F880220AB9B7
:10234000FFF772BFD3F88022012A01D1FFF78EBFB9
:10235000D3F88022022A01D1FFF77CBFD3F8803264
:10236000032B06D1FFF79CBF024B18687047FFF79D
:10237000C7BF70476823022008B54FF08043D3F8E9
:1023800088221946062A1DD8DFE802F0040D101332
:10239000161C1900FFF7C6FFD1F88433DBB20133F6
:1023A000B0FBF3F008BD084B1868F5E7FFF75EFFD8
:1023B000F2E7FFF775FFEFE7FFF74CFFECE7FFF7FA
:1023C0009FFFE9E70020E7E76823022008B54FF008
:1023D0008043D3F8A432012B10D063B1022B10D06C
:1023E00000204FF08043D3F8943303F00703013308
:1023F000B0FBF3F008BDFFF795FFF2E7024B18685A
:10240000EFE7FFF74DFFECE76823022008B54FF038
:102410008043D3F8A832012B0FD05BB1032B0FD030
:1024200000204FF08043D3F89833DBB20133B0FB88
:10243000F3F008BDFFF776FFF3E7034B1868F0E70A
:10244000FFF72EFFEDE700BF6823022008B54FF02D
:102450008043D3F8F832012B0FD05BB1032B0FD0A0
:1024600000204FF08043D3F8BC33DBB20133B0FB24
:10247000F3F008BDFFF756FFF3E7034B1868F0E7EA
:10248000FFF70EFFEDE700BF6823022008B54FF00D
:102490008043D3F8F0221946052A18D8DFE802F065
:1024A000030C0F121715FFF73DFFD1F8B433DBB261
:1024B0000133B0FBF3F008BD064B1868F5E7FFF7F2
:1024C000D5FEF2E7FFF7ECFEEFE7034BF5E7002060
:1024D000EBE700BF68230220642302204FF0804214
:1024E000AC3008B552F82030062B28D8DFE803F0CE
:1024F000040811151C202300BDE80840FFF712BF97
:10250000D2F8C4030F4AC0B2431C1068B0FBF3F00A
:1025100008BDBDE80840FFF787BEFFF7C1FED2F84F
:102520008833DBB20133F1E7BDE80840FFF792BE24
:10253000054B1868ECE7BDE80840FFF7E1BE002056
:10254000E6E700BF682302206423022010B504469A
:10255000FFF7C4FFA20002F18042D2F82033D2F884
:10256000202303F47F43D2B20132B3FBF2F30133F1
:10257000B0FBF3F010BD00004FF0804208B5D2F878
:10258000D032062B25D8DFE803F0040811151C24EF
:102590002000BDE80840FFF7C5BED2F8C4030E4ACC
:1025A000C0B2431C1068B0FBF3F008BDBDE80840A2
:1025B000FFF73ABEFFF774FED2F88833DBB201337F
:1025C000F1E7BDE80840FFF745BEBDE80840FFF76A
:1025D00097BE0020E9E700BF68230220800000F1D9
:1025E000804000F51A704368062B12D8DFE803F02C
:1025F000040611090B0D0F00FFF794BE064B186877
:102600007047FFF74DBEFFF725BE044BF7E7FFF716
:1026100077BE0020704700BF682302206423022099
:1026200008B500F198024FF08043014653F822307C
:10263000012B10D01BB1022B11D0002008BDFFF7D9
:1026400071FE890001F18041D1F80033DBB2013322
:10265000B0FBF3F0F2E7BDE80840FFF7FBBDBDE8D3
:102660000840FFF74DBE000008B51F287CD8DFE802
:1026700000F010141F3323272B7B2F464A373B3F94
:10268000424E505557595B5D5F6163676C6E707267
:102690007479BDE80840FFF745BEFFF743FE4FF0F1
:1026A0008043D3F88033DBB20133B0FBF3F008BDD5
:1026B000BDE80840FFF760BEBDE80840FFF786BEF2
:1026C000BDE80840FFF7A2BEBDE80840FFF7A0BD87
:1026D000BDE80840FFF7FABDBDE80840FFF7E0BDE0
:1026E000BDE80840FFF7A0BDBDE80840FFF7BEBD4C
:1026F0001E4B1868DBE7BDE80840FFF7C3BDBDE827
:102700000840FFF7C3BEBDE80840FFF79FBE184B67
:10271000EFE70020BDE80840FFF718BF0120F9E708
:102720000220F7E70320F5E70420F3E70520F1E7AF
:102730000620EFE70720EDE7BDE80840FFF71CBFE4
:102740000020BDE80840FFF749BF0120F9E702205B
:10275000F7E70320F5E70420F3E70020BDE8084091
:10276000FFF75EBF0120F9E70020A0E76823022001
:1027700064230220134B53F820302DE9F0411D68EB
:1027800006461D60104B1B5C43B9104B53F82030BC
:102790001B68ABB12846BDE8F0411847002401276B
:1027A000DFF8288007FA04F32B4206D058F82630C9
:1027B00053F824300BB1284698470134072CF1D147
:1027C000BDE8F081BC6B03006C230220742302205F
:1027D0000020FFF7CFBF0120FFF7CCBF0220FFF79B
:1027E000C9BF0320FFF7C6BF0420FFF7C3BF000027
:1027F000054B984206D003F5143398420CBF0120D4
:102800000220704700207047002008402DE9F8435F
:10281000FFF7EEFF7826264B00274FF0010806FB56
:10282000003656F8044B002C3CD0257BA3686A097F
:1028300005F01F05583308FA05F553F82210294210
:102840000BD0D4F8009043F82250B9F1000F04D017
:102850000023012261682046C847A368227B6033B9
:10286000520953F822100D420BD0D4F8009043F8CF
:102870002250B9F1000F04D00123616820461A46A6
:10288000C847A368227B4033520953F822100D42F7
:1028900008D043F82250256825B102230022616840
:1028A0002046A84701371E2FBBD1BDE8F88300BFE3
:1028B000882302200148FFF7A9BF00BF002008407D
:1028C0000148FFF7A3BF00BF00700A40064A00237B
:1028D00052F8041B884201D1184670470133092B76
:1028E000F6D10020704700BFD06B030070B50546DD
:1028F0000C46FFF7EBFF002832DB1C4B01264FF0A4
:10290000804133F810301A0ADBB2883206FA03F33A
:1029100041F82230164B53F8200000F0D2F954B1A0
:10292000042C16D8E21CD5F8F83F96401E4214BF7E
:1029300001230023B3B1D5F8F83F1B0705D5D5F81F
:10294000F83F03F00703A3420ED10020C5F8F84F6B
:1029500070BD052C06D1D5F8F83FC3F3C013E9E7E5
:102960000420F5E70320F3E70120F1E7F46B03000F
:10297000086C0300024B034A1B68116802481847A1
:102980009C2402207824022000600840024B034A65
:102990005B685168024818479C2402207824022072
:1029A00000700840024B034A9B6891680248184730
:1029B0009C2402207824022000800840024B034A15
:1029C000DB68D168024818479C2402207824022042
:1029D00000900840024B034A1B69116902481847DE
:1029E0009C2402207824022000A00840024B034AC5
:1029F0005B695169024818479C2402207824022010
:102A000000600940024B034A9B69916902481847DC
:102A10009C2402207824022000700940024B034AC3
:102A2000DB69D169024818479C24022078240220DF
:102A300000800940044A136843F001031360034B0C
:102A40001B6803B11847704700200040C0240220D3
:102A5000044A136843F001031360034B5B6803B13E
:102A60001847704700300040C024022030B50124D0
:102A70001D7804FA02F28C003DB9204400F50050A4
:102A8000036823EA0202026030BD5B784BB901F5AE
:102A90000A6140F82120204400F5005003681A43E1
:102AA000F1E701F50861F4E7024B034A1B6811687E
:102AB00002481847CC240220C824022000D002403B
:102AC000836A1B0E1CBFC26AC262184670470000B0
:102AD00008B50848FFF7F4FF074B01461B6A0BB126
:102AE00008209847034B1A68D2075CBF01225A623C
:102AF00008BD00BF00500040D024022008B508489F
:102B0000FFF7DEFF074B01465B6A0BB109209847D0
:102B1000034B1A68D2075CBF02225A6208BD00BF8D
:102B200000500040D024022008B54FF04020FFF7AD
:102B3000C7FF074B01461B680BB1002098474FF0B9
:102B400040231A68D2075CBF01225A6208BD00BF49
:102B5000D024022008B54FF04020FFF7B1FF074B0B
:102B600001465B680BB1012098474FF040231A687B
:102B700092075CBF02225A6208BD00BFD024022027
:102B800008B54FF04020FFF79BFF074B01469B68BD
:102B90000BB1022098474FF040231A6852075CBFE0
:102BA00004225A6208BD00BFD024022008B54FF0AD
:102BB0004020FFF785FF074B0146DB680BB1032080
:102BC00098474FF040231A6812075CBF08225A62E8
:102BD00008BD00BFD024022008B54FF04020FFF709
:102BE0006FFF074B01461B690BB1042098474FF05C
:102BF00040231A68D2065CBF10225A6208BD00BF8B
:102C0000D024022008B54FF04020FFF759FF074BB2
:102C100001465B690BB1052098474FF040231A68C5
:102C200092065CBF20225A6208BD00BFD024022059
:102C300008B54FF04020FFF743FF074B01469B6963
:102C40000BB1062098474FF040231A6852065CBF2C
:102C500040225A6208BD00BFD024022008B54FF0C0
:102C60004020FFF72DFF074B0146DB690BB1072022
:102C700098474FF040231A6812065CBF80225A62C0
:102C800008BD00BFD024022082B20123000C934073
:102C9000800000F18040C0F82031D0F800211A42B5
:102CA000FBD0704782B20123000C9340800000F1FA
:102CB0008040C0F84031D0F8002133EA0202FAD057
:102CC0007047014608B5FFF7DFFF0846BDE808403A
:102CD000FFF7E8BF014B02481B681847F8240220A1
:102CE00000500840F0B5D1E90043002B58D024B380
:102CF0006168B1F5803F53D2A668C16106FB01F55A
:102D000005621D6A45F400771F6227694FB345F4D9
:102D1000C0651D62217819B1196A41F40061196218
:102D2000617829B1012E82BF196A41F4805119627C
:102D30003AB3426A22F038024262D3E90712032909
:102D400023D142F4E0721A629A690020032A02BF7A
:102D50001A6A42F480421A621A6A42F020221A6207
:102D6000F0BDB1F5807F95BF0904D0F8001101F4E2
:102D70007F0121F0010198BF41F00101C0F800116D
:102D8000C8E7426A42F03802D6E7081F012802D895
:102D900042F04002D7E70029D6D042F4A072D2E731
:102DA00041F20D70DCE710B509B9002010BDCA6909
:102DB000046B032A8C6005D1436BCB60836B0B6182
:102DC000C36B4B61496A0029EFD0082AEDD84FF454
:102DD000A373D340DB07E8D50C42E6D041F2137071
:102DE000E4E7F0B5C46C03689E0117D44B68C4F3E4
:102DF0000B449D071EBF23F0030304334B60D1E94E
:102E000001356B439B089C4203D29B1AA34228BF07
:102E10002346950000249C4202D122441046F0BD76
:102E200004F18006013450F82670CE6877510435DD
:102E3000F1E7F0B5C46C03689E0117D44B68C4F386
:102E40000B049D071EBF23F0030304334B60D1E93D
:102E500001356B439B089C4203D29B1AA34228BFB7
:102E60002346950000249C4202D122441046F0BD26
:102E70000E69775904F180060435013440F8267054
:102E8000F1E703680B4303604B0707D5D0F88030A8
:102E900023F0810343F00103C0F8803003680B4244
:102EA00003D1101C18BF01207047002AF9D0013A45
:102EB000F4E74B6883620B68096A03F03F0321F073
:102EC0003F010B4343F00043C362C36A002B03DBA3
:102ED000B2FA82F040097047002AF9D0013AF4E7CB
:102EE00070B58AB005460E4628220021684603F0D8
:102EF00038FA2C683246694614F0100428461FBF81
:102F00002B68012423F010032B604FF40043089337
:102F1000FFF7CFFF01280ED02B6C5B07FCD56B6C45
:102F200003F004036B6444B12B6843F010032B607F
:102F300020460AB070BD0024FAE70124F8E700003B
:102F4000094A4FF080439042D3F8603407D90129F1
:102F500016BF43F0004343F0810343F41F034FF0D7
:102F60008042C2F8603470477FF0FA02F0B58BB04F
:102F700005460E46174600212822684603F0F1F95F
:102F80002B694FF0FF32694623F0010328462B617D
:102F9000164B0893FFF78DFFB74224D2B7423C4649
:102FA00028BF3446B6FBF4F401346408E3B24FF0B2
:102FB000FF3269462846AB60FFF77BFF2B69694605
:102FC0004FF0FF3243F0010328462B61FFF771FFFA
:102FD00021463846FFF7B4FF14B16400B6FBF4F69F
:102FE00030460BB0F0BD0024E0E700BF0020200019
:102FF0002DE9F04F4C6842EA0405A346AE0740F0C5
:10300000BB809D070D7891F801C01CBF23F003031E
:1030100004332DB1D0F8805045F00205C0F880503F
:103020004FEA0C37BB422CD9B3FBF7F507FB15373A
:10303000002F18BF01358F78D1F808E007EB051194
:10304000B1EB8E0F00F29B80BCF1010F1BD0BCF1E5
:10305000020F29D0036843F000730360D0F880307A
:1030600043F08003C0F88030D0F8903043F44D73C3
:1030700043F00303C0F89030C0F888B00020BDE8EA
:10308000F08F0125D7E7002110344FF00808DFF852
:10309000F4908C466545A4F1100E4ED10B6823F0D8
:1030A000020343F0040317E0B900D0F880C00437EE
:1030B0004FF0080E01F07C01DFF8CC80BF0041EA40
:1030C0000C01C0F8801000218C46654506D10B68C4
:1030D00023F0020343F024030B60BBE7B3F5805FEA
:1030E00027D9A3F580534FF48051B3F5805F9946FB
:1030F00028BF4FF48059A3EB0903BCF1000F01D1A5
:10310000C4F800E026680CF1010C46EA080AC4F88D
:1031100000A041EA493AC4E901A221F0030A494466
:10312000924421F00301C4F80CA00A4421463C4417
:10313000CBE719464FF00009DFE7B3F5805F86BFA4
:10314000A3F580534FF480511946BCF1000F01D113
:1031500044F8108C54F8107C0CF1010C44F8082C45
:1031600047EA090744F8044C44E9047121F00301DB
:1031700010340A4471468DE741F214707FE741F242
:103180000C707CE71200008002000080012908D04A
:1031900011B102290BD07047836923F001138361B9
:1031A0007047836923F0011343F00103F7E7836954
:1031B00043F48033F3E7000038B508224FF0804332
:1031C00004460D46C3F828221048FFF77AFD6369CC
:1031D000EA682B7843EA022363616B6823F07F433C
:1031E00063660B4BE364636A6FEA53436FEA4343DE
:1031F0006362636CC3F310036364D4F88C3023F010
:10320000C8039B059B0DC4F88C3038BD0300020039
:1032100010000F102DE9F84F156804461646002DD2
:103220003CD123684FF0FF320221204623F0007387
:103230004FF000082360D4F8803023F08003C4F8F6
:103240008030FFF71EFE636CC3F3100363644246D5
:1032500031462046FFF746FD002840F0E1804FF060
:10326000FF3271682046FFF724FE002840F0DB8023
:103270007168226C5607FCD5636C134023F46B63B2
:1032800023F00903DB04DB0C636441F242131A42AE
:103290001BD041F20F773846BDE8F88F0029C0D027
:1032A000EA6802B92A69D5E9013043432046FFF7AD
:1032B0009FFE41F20C7307469842ECD041F2147322
:1032C0009842AED04FF00108C1E72046FFF76BFDF2
:1032D00007460028DDD1002DDDD0B8F1000F2CD03D
:1032E0000646D4F88C30580741BFD4F88C2041F200
:1032F000117602F40172C4F88C2099061AD5D4F81C
:103300008C30AA7803F40873C4F88C3041F212733D
:10331000002A08BF1E46D4F88C3023F0FC03DB05DE
:10332000DB0DC4F88C30236C626C13406364002E98
:10333000B1D018E09A07D4D0EDE76B68D5E9021058
:1033400003F0030288B31AB123F0030304336B6064
:103350006A6800264AF6802B4A434FEA920A3246B0
:103360009245E4D916B141F2127794E7D4F840902F
:1033700019EA0B0F01D0AB78ABB119F0280F02D1CD
:10338000B8F1000FF2D019F0080F18BF4FF0010884
:1033900026B929462046FFF724FD0246636C09EA58
:1033A00003036364DCE70126EDE71AB123F00303AE
:1033B00004336B606B6800264AF6802A4B43324622
:1033C0004FEA9309914500D99EB1236C1B07FCD5A8
:1033D000226C4AF680231A4203D0AB78002B08BF38
:1033E0000126636C23F4AA4323F077031B041B0C10
:1033F0009CE7D4F8408018EA0A0F03D0AB78002B82
:1034000008BF012618F0100FF3D026B92946204630
:10341000FFF70FFD0246636C08EA03036364D1E71C
:1034200041F20D7737E741F20E7734E710B50C46DD
:1034300014220021204602F094FF442320224FF65C
:10344000FF71C4E900234FF00113C4E902133F23C5
:10345000236110BD4FF0804208230648C2F848326D
:10346000D2F8603423F0004323F08013C2F86034B4
:10347000FFF727BC03000200024B034A1B681168D8
:103480000248184700250220FC24022000B0094011
:1034900010B50C220021044602F063FF4FF4803384
:1034A0004FF4E132C4E900230023A36010BD2DE9ED
:1034B000F04140B339B332B34FF0FF350F260F015F
:1034C000AC463446631CB2FBF7F808F1FF3EBEF58C
:1034D000803F0CD203FB08F3B2FBF3F3994234BFF5
:1034E0005B1ACB1A63453EBF754626469C46013C97
:1034F0007F1A072CE6D1B5F5803F06D286620562B9
:103500000020BDE8F0810420FBE741F25160F8E7BC
:1035100070B50D461646044600285FD000295DD0E0
:10352000002A5BD00121FFF7E1F9002855D132468E
:1035300029682046FFF7BBFF00284ED16B7AD3B134
:10354000D4F8003E43F00113C4F8003ED4F8083E1E
:1035500023F47063C4F8083EAB7AD4F8082E1B023B
:1035600003F470631343C4F8083ED4F8083E43F0F4
:103570000103C4F8083E2B7AD3B1D4F8003E43F0DF
:103580000213C4F8003ED4F8083E23F47023C4F8B4
:10359000083EEB7AD4F8082E1B0403F4702313437F
:1035A000C4F8083ED4F8083E43F00203C4F8083ECD
:1035B0002B790020AA791B01920003F0300302F05E
:1035C0000C021343EA7943EAC2336A79920102F0AA
:1035D0004002134343F00103236070BD0420FCE765
:1035E000024B034A1B68116802481847082502204D
:1035F0000425022000E0004000207047A1F5403182
:10360000B1F5D02F2CBF4FF0FF304FF40070704752
:103610004FF4007070474FF4403070474FF4D020A3
:10362000704700207047000030B501444FF0FF3371
:10363000084C884201D1D84330BD10F8012B5340CB
:10364000082203F001055B0805B16340013AF8D197
:10365000EFE700BF2083B8ED40B1038882785BBA02
:10366000C0789BB242EA032340EA0320704730B59A
:10367000A8B1036804791BBA44EA032144791B0CFE
:1036800044EA012184791B02C07944EA012443EA17
:10369000116340EA04201B0243EA146130BD014675
:1036A000FCE730B10B0AC17083700B0C090E43703C
:1036B0000170704768B1110AC271C3708171110C39
:1036C000120E417102711A0A82701A0C1B0E42709E
:1036D0000370704770B54B684568AB420FD100234B
:1036E0001A46AB4203D150421043C00F70BD8468EC
:1036F0008E68E45CF65C013374402243F1E70120FC
:10370000F4E70000F0B50E46BDB0144605460028AB
:103710007BD08368002B78D04368402B75D8002974
:1037200073D08B68002B70D0002A6ED09368002B6A
:103730006BD013681F2B68D94022362101A802F0F4
:1037400010FE40225C2111A802F00BFED5F804C047
:1037500001AA11A900239C4516D121A8FDF7F4FC6C
:10376000002121A8FDF7FAFCE8B1294C21A8FDF7BA
:10377000EFFC402101A8FDF7DFFC402111A8FDF777
:10378000DBFC20463DB0F0BDAF68107817F803E0D1
:1037900080EA0E0002F8010B0878FF5C01337840E4
:1037A00001F8010BD7E7402201A921A8FDF7D4FDBC
:1037B0000028DAD121A8D6E90121FDF7CDFD0028A6
:1037C000D3D1A16821A8FDF706FE01460028CCD17F
:1037D00021A8FDF7C3FC0028C7D1402211A921A8C8
:1037E000FDF7BAFD0028C0D12022A16821A8FDF76D
:1037F000B3FD0028B9D1A16821A8FDF7ECFD002890
:10380000B3D1202363600446B0E7014CB9E700BFA1
:103810000100435501681F2930B5044685B006D81C
:103820000E4D22680021A06802F09BFD13E0806825
:1038300002F0A4FA0028F3D1094A01AB07CA83E8D1
:10384000070010221946204662602246FFF75AFF01
:1038500005460028E5D1284605B030BD0100435596
:10386000F064030070B50C46054608B9022070BD2F
:103870000029FBD06C21FFF7D7FE064605F16C004E
:10388000FFF7EAFE8642F1D105F10800FFF7EFFEEF
:10389000C4E9000105F11000FFF7E9FE2022C4E9A8
:1038A000020105F1180104F1100002F04DFD102293
:1038B00005F1580104F1300002F046FD0020D6E782
:1038C00038B50C46054600283AD0002938D00B6898
:1038D0006F2B35D970220021A06802F042FD1949F2
:1038E000A068FFF7DEFEA06802210430FFF7D9FED2
:1038F000A068D5E900230830FFF7DCFEA068D5E911
:1039000002231030FFF7D6FEA068202205F1100137
:10391000183002F019FDA068102205F1300158306E
:1039200002F012FD6C21A068FFF77EFEA36801463D
:1039300003F16C00FFF7B5FE70230020636038BD13
:103940000220FCE7D4B3515AF0B50F469BB00646AF
:1039500018B311B30AAB202500212A46184602F0FD
:1039600000FD00220195CDE9022001A8FFF752FFDA
:1039700001B291B9E8232A460696CDE9043312AB89
:10398000184602F0EEFC07AA099004A901A8CDE9A7
:103990000755FFF7B7FE00B208B1022027E006F195
:1039A000E80307A904A80693CDE90455FFF792FEA2
:1039B00004460028F1D106F10800FFF758FEC7E9D8
:1039C000000106F11000FFF752FE2A46C7E9020186
:1039D00006F1180107F1100002F0B6FC102206F102
:1039E000A00107F1300002F0AFFC20463C641BB0A0
:1039F000F0BD000038B514681546002C0ADB6FF0E6
:103A00000042944206D08C4201D220B103552B686B
:103A100001332B6038BD19460148FEF7EDFAF6E791
:103A20000C2502202DE9F04F87B006460F46904640
:103A3000109B0725DDF844904FF0000E0193EC0039
:103A40000199C4F12002A4F1200321FA04F409FA37
:103A500002F229FA03F314431C43E4B2BEF1000F4F
:103A600001D104B94DBB184B22090DF1080A04F02D
:103A70000F0403F1100B1868083353F8041CD446E4
:103A80005B45ACE80300E246F5D1BEF1000F00D182
:103A900042B106AB394630461A4412F8103C424651
:103AA000FFF7A8FF06AB4246394630461C4414F8DF
:103AB000103CFFF79FFF4FF0010E15F1FF35BED20E
:103AC00007B0BDE8F08F00BFFC640300FFF792BFB2
:103AD0002DE9F04387B00024054688469146002131
:103AE00018226846DDE90E6702F03BFC56EA070340
:103AF00003D1ACB907B0BDE8F083304639460A229D
:103B00000023FDF7D9F83032304639460DF804204D
:103B100000230A220134FDF7CFF806460F46E5E7F9
:103B2000013C4A46414628461DF80430FFF762FF33
:103B3000DFE700002DE9F04F1C469A4B934685B015
:103B40001A7806460D465AB100221E2196481A7070
:103B50001D22FEF79FF94FF4E1319348FEF734FA46
:103B600000230393BBF1000F00F000819D42C0F2DF
:103B7000FD801ABF05F1FF359A464FF0010A4FF05C
:103B800000081BF80830002B00F0EF80252B40F0D8
:103B9000F38008F101071BF80730791C4BB1A3F142
:103BA0002302D2B2162A04D8804820FA02F2D207A1
:103BB00008D41BF80120BAB3682B05D1682A31D08C
:103BC000022340E00F46E6E76C2B40F0E7806C2ACA
:103BD0003BD1042302371BF80790B9F1640F02D0E0
:103BE000B9F1690F52D1042B39D1073424F00704FD
:103BF000F4E80223002A9046994673F100013ADA6C
:103C00002D2303AA29463046FFF7F4FED8F1000819
:103C100069EB4909CDE9008903AA29463046FFF737
:103C200057FF30E00123D5E7002BD4D0682BC7D055
:103C30006C2B0AD06A2B0AD07A2B0AD0742B0AD0AC
:103C40004C2B0AD108230F46C5E70323FBE70523C6
:103C5000F9E70623F7E70723F5E70023BBE7012B86
:103C600054F8042B03D0022B03D0D317C2E752B26F
:103C7000FBE712B2F9E71343CCD1302303AA29465C
:103C80003046FFF7B7FE07F101087AE7B9F1750F83
:103C900003D009F0DF02582A26D1042B0DD10734B6
:103CA00024F00704F4E80223B9F1750F14D152EAA5
:103CB0000301E2D0CDE90023AEE7022B54F8042B38
:103CC00006D0072B06D0012B08BFD2B20023EBE7AA
:103CD00092B2FBE7D317E7E7CDE9002303AA294611
:103CE0003046FFF79FFECEE7B9F1630F08D154F8D5
:103CF000043B03AA29463046DBB2FFF7E7FEC2E7E2
:103D0000B9F1730F0DD154F8043B03F1FF3818F8E3
:103D1000013F002BB7D003AA29463046FFF76AFEC1
:103D2000F5E7B9F1700F1BD154F8048B302303AAC7
:103D3000294630464FEAE879FFF75CFE782303AA6C
:103D400029463046FFF756FECDE90089C6E71BF845
:103D5000083008F1010803AA29463046FFF7B6FEED
:103D6000B845F4D3B9F1000F04D166B9039805B092
:103D7000BDE8F08F1BF8083003AA294630464746B5
:103D8000FFF7A4FE7FE7BAF1000FEFD1039BAB4230
:103D900094BF06F803A006F805A0E7E7002B3FF460
:103DA0001AAF47E7142202200C25022001ED7F0004
:103DB0000FB407B504AB6FF00041002053F8042B9B
:103DC0000193FFF7B7FE03B05DF804EB04B0704752
:103DD000014B1860002070471025022008B5044BE5
:103DE0001B6813B11B68984708BD0220FCE700BFA1
:103DF00010250220044B1B6810B51BB112B19B6942
:103E0000984710BD0220FCE71025022008B5044B9E
:103E10001B681BB110B11B6A984708BD0220FCE764
:103E20001025022008B5044B1B681BB111B15B6A59
:103E3000984708BD0220FCE71025022038B505464A
:103E400060B100F00BF90446284600F02DF820433D
:103E500000B200280CBF0020042038BD0220FCE77F
:103E6000024B1B6803B11847704700BF142502209E
:103E700010B590B90A4B6FF07C441B68B4FBF3F4A7
:103E800004FB03340C600749B1FBF3F15943091BF0
:103E9000B1FBF3F14B43136010BD0220FCE700BF00
:103EA0002025022000FC050470B5054608B9022053
:103EB00070BD0E4E00F08AF8044600F09BF83060AA
:103EC00000F0A2F80A4B40F2271218603368B2FBE8
:103ED000F3F202FB0333074A1360002CE7D1064BD1
:103EE00020461D60FFF7BCFF2046E1E71C250220AD
:103EF0002025022018250220142502207FB50E4619
:103F000014464AB393683BB34FF0FF3303AA02A9A8
:103F1000CDE90233FFF7ACFF636805464BB10F4AAA
:103F2000013B1268B3FBF2F303FB022322689A42BF
:103F30000FD30B4A1168029A009300230A44A06829
:103F4000324400F06BF8044618B925460420FFF708
:103F500087FF284604B070BD0225FAE71C25022021
:103F6000182502202DE9F04184B002240E4602AF4C
:103F700021B34FF0FF333A1D3946E846C7E9003315
:103F8000FFF776FF104B04463A681968CB1D23F003
:103F90000703ADEB030D00236D4645F8081B2846CB
:103FA00000F03CF848B931462846FFF7CDFC0446FE
:103FB00003B213B90720FFF753FFC5462046083761
:103FC000BD46BDE8F08100BF1825022010B5074CA2
:103FD000206803689B6C984701460548FFF7E8FE98
:103FE00020680368BDE810409B681847242502201C
:103FF0004D6C030008B5034B186803689B6A98472B
:1040000008BD00BF2425022008B5034B18680368CB
:10401000DB6A984708BD00BF2425022037B5064952
:10402000069D0C6821680095002501954D690146A3
:104030002046A84703B030BD2425022008B501F072
:1040400073FC014B186008BD24250220024B1B683D
:1040500003B11847704700BF2825022038B5054630
:1040600000F04CF8044628B9034B1D60FFF7EEFF43
:10407000204638BD0224FBE728250220F0B505467E
:104080009FB018B9022420461FB0F0BD00230822BB
:104090004FF4603168460424CDE9003300F078F82D
:1040A0000646D8B96846FFF7D7FA07460DEB040075
:1040B000FFF7D2FA022811D10F4B7022314602A825
:1040C0009F4208BF002402F04CF93CB970224FF423
:1040D000603102A800F05CF838B1042423B2002B50
:1040E000D1D10620FFF7B2FFCDE7294602A8FFF79E
:1040F000B9FB0446F2E700BFD4B3515A014803F0BC
:104100004FB900BF2C2502200148FFF775BA00BF48
:104110002C2502202DE9F8430E461746804618B993
:104120004FF0FF30BDE8F8831848FFF774FA0446F3
:104130001648FFF773FAB44204EB0003F0D8F21903
:104140009A42EDD8B842EBD31048FFF761FA054622
:10415000B6FBF0F300FB1363002BE1D1B7FBF0F4E7
:1041600000FB1474002CDBD12046DFF8209007E020
:1041700008EB0402A1192C442B46484603F008F929
:10418000BC42CFD20028F3D0CCE700BF2C250220C0
:1041900013460246014803F00BB900BF2C2502204C
:1041A0000148FFF735BA00BF2C250220014601481F
:1041B000FFF724BA2C250220F8B505460E480E4616
:1041C000FFF729FA04460C48FFF728FA2044A842D2
:1041D0000DD9AC420ED2084F21463846FFF70EFAF1
:1041E0002044854204D816B1854218BF2046F8BD48
:1041F0000446F1E72046FAE72C250220F8B50446EC
:104200000E460121FFF7D8FF05460021A019FFF750
:10421000D3FFAC42074612D04FF0FF352846F8BD19
:104220002146304603F0ACF8214605463046FFF7FC
:10423000E5F90444BC42F1D2002DF1D0EEE70025AF
:10424000004EF7E72C2502200020704703689B6A88
:1042500018470368DB6A18470020704770477047AB
:10426000D0E902017047D0E90612C3688068424372
:1042700001FB0323A0FB01011944704770470000B4
:10428000004870476B6C03002DE9F74F1D4603682B
:1042900082468B469B6D1446DDE90C899847DAF817
:1042A000003050465B6D9847DAF8003038B91E4C44
:1042B0005046DB6D9847204603B0BDE8F08F9AF872
:1042C000052022B9DB6D50469847184CF3E7CDE93D
:1042D00000892246D96B50462B46884730B9DAF818
:1042E00000305046124CDB6D9847E4E7DAE902678C
:1042F0004046494632463B46FCF7DEFC80463B469C
:10430000324620462946FCF7D7FC4246014658462D
:1043100000F012FA074B041E504618BF1C46DAF88C
:104320000030DB6D9847C6E773ECFFFF74ECFFFFCE
:1043300075ECFFFF6BECFFFF2DE9F74F1D4603689F
:1043400082468B469B6D1446DDE90C899847DAF866
:10435000003050465B6D9847DAF8003038B91E4C93
:104360005046DB6D9847204603B0BDE8F08F9AF8C1
:10437000052022B9DB6D50469847184CF3E7CDE98C
:1043800000892246196C50462B46884730B9DAF826
:1043900000305046124CDB6D9847E4E7DAE90267DB
:1043A0004046494632463B46FCF786FC80463B4643
:1043B000324620462946FCF77FFC424601465846D5
:1043C00000F0C8F9074B041E504618BF1C46DAF827
:1043D0000030DB6D9847C6E773ECFFFF74ECFFFF1E
:1043E00075ECFFFF6AECFFFF036870B504469B6D38
:1043F0009847637903B92362266A23680136012E40
:10440000266205D00025DB6D20469847284670BD02
:104410005B6D2046984728B923682046114DDB6D17
:104420009847F3E700F00AF9054630B123682046C3
:104430006FF47A65DB6D9847E8E704F1240000F03B
:10444000A9F9E36B66712046C4E90635A36BB3F5A1
:10445000007F2368DB6D02D09847034DD6E798476D
:10446000D4E700BF73ECFFFF6CECFFFF036870B58F
:1044700004469B6D984765792DB9256223682046CF
:10448000DB6D984708E0266A013E266236B1236854
:1044900000252046DB6D9847284670BD00F044F9A2
:1044A0000022002305466671C4E90623E6E7000002
:1044B000044B10B50360044643790BB1FFF7D6FFF8
:1044C000204610BD786C030010B50446FFF7F0FFDE
:1044D0002046FDF7DBFB204610BD08B590F90430FF
:1044E000013306D00430FDF767FCB0FA80F04009D4
:1044F00008BD0120FCE7000038B500250A4B044642
:10450000036000F8045FFDF7F4F9002200236571F1
:1045100025622046C4E906234FF400720023C4E953
:104520000223C4E9042338BD786C03002DE9F34766
:10453000D0E9048914469A46054642464B46204631
:104540005146FCF7B9FB1343DDE90A671BD142462C
:104550004B4630463946FCF7AFFB134313D1A31942
:10456000284600934AEB070301932B689B6B9847FF
:10457000DDE90034A14208BF98422CBF0120002091
:1045800002B0BDE8F0870020FAE700002DE9F3470C
:104590001D460368824614469B6DDDE90A899847EB
:1045A000DAF8003050465B6D984748B9DAF80030C9
:1045B00050461E4CDB6D9847204602B0BDE8F087A0
:1045C0009AF8053033B9DAF800305046184CDB6DF4
:1045D0009847F1E7CDE9008922462B465046FFF780
:1045E000A5FF30B9DAF800305046124CDB6D984721
:1045F000E2E7DAE902674046494632463B46FCF7C5
:104600005BFB80463B46324620462946FCF754FB7E
:10461000414600F0ADF8DAF8003004465046DB6D54
:1046200014B19847044CC7E79847C5E773ECFFFF00
:1046300074ECFFFF75ECFFFF69ECFFFF30B587B04E
:1046400014220021354C01AD284601F08AFE4FF0BE
:10465000FF330293FDF710FD02210920FDF7BCFB9B
:1046600000210920FDF7F6FB02212020FDF7B4FB15
:1046700000212020FDF7EEFBD4F8803002211F201E
:1046800043F04003C4F88030FDF7A6FB00211F2053
:10469000FDF7E0FBE36F0221192043F04003E367DD
:1046A000FDF79AFB00211920FDF7D4FB636E022170
:1046B000182043F040036366FDF78EFB00211820AD
:1046C000FDF7C8FB236E0221072043F04003236659
:1046D000FDF782FB00210720FDF7BCFBE369022107
:1046E000082043F04003E361FDF776FB002108203A
:1046F000FDF7B0FB236A0A2043F040032362084C15
:10470000084B2360FDF7B0FF60602046256300F092
:1047100042FF003018BF012007B030BD001000403C
:104720003025022000B0094008B5024800F056FFCD
:10473000002008BD3025022008B513460A46014670
:10474000034800F0FBF9003018BF012008BD00BF8E
:104750003025022008B513460A460146034800F0FA
:1047600079FA003018BF012008BD00BF30250220B3
:1047700008B5074B091AD3F8CC20B1FBF2F2014679
:10478000184600F037FB003018BF012008BD00BFFD
:104790003025022004230360074B5A6C426000223C
:1047A00082601A6CC260D3F8C820D3F8CC300261A2
:1047B000C361C0E905327047302502202DE9F0437E
:1047C00004468DB00F4616464FF00008DFF84C90B7
:1047D000A3693946206898470546B0B13B68A3B144
:1047E0000021202203A8CDF8008001F0BAFD0C239F
:1047F0000321CDF82C90029302232068CDE9081301
:1048000002AB69460193A369984716B1013E002D9A
:10481000DED128460DB0BDE8F08300BF0800F9FFE7
:1048200070B58CB004462022002104A802AD01F02E
:1048300098FD0D2300260293236C1B040393012390
:104840000993022269462046CDE90065FFF7B6FFCD
:1048500030B9049BDA05F4D5C3F34323072BF0D01A
:104860000CB070BD2DE9F04192B0064615460C46DD
:1048700003AF202200210AA8984601F072FD1422FD
:1048800000213846E40701F06CFD0623AA0064F01D
:104890007F4408930F2301A93068934008FA02F27D
:1048A00024EA03040123144340220F930994CDE921
:1048B0000423054B069308ABCDE90173B369984710
:1048C00012B0BDE8F08100BF682702202DE9FF414A
:1048D0004FF00008494C05460F46164641464FF436
:1048E0000072204601F03DFD6B6C012B02D84FF4A5
:1048F000E1600CE0B5F890305905F8D533463A46FA
:1049000041462846FFF7AEFF20B140F2097004B0DF
:10491000BDE8F0812B69012B5BD083B1022BE6D17E
:1049200023681BBA236063681BBA6360A3681BBA61
:10493000A360E3681BBAE36023691BBA23612368A1
:10494000ADF80E3063681A0CADF80A30A368ADF804
:104950000C20ADF806301A0CE368ADF808201A0CEC
:104960001B02ADF804209BB2E27C134304AA02EBC5
:10497000470232F80C2C3241D207B8D54FEA8708EB
:1049800023FA08F303F00F03B342B0D133463A469B
:1049900001212846FFF766FF0028B6D12B69012BBD
:1049A00026D03BB1022BA2D1E3681BBAE360236996
:1049B0001BBA2361E368E27C1B029BB2134323FA18
:1049C00008F840F2167308F00F08B04518BF1846F3
:1049D0009DE723685BBA236063685BBA6360A36882
:1049E0005BBAA360E3685BBAE36023695BBAA5E7DF
:1049F000E3685BBAE36023695BBADAE76827022001
:104A00002DE9F04192B00026044628220DF120083D
:104A100003AF3146444D4046CDE9016601F0A1FCAB
:104A200014223146384601F09CFC4FF400723146A6
:104A3000284601F096FC2046FFF7F2FE002867D1D9
:104A4000226CA169206800F0F7FD0646002862D1BB
:104A50000D234022069501A90893012320680F9396
:104A6000CDE90423CDE90178A36998472F4B0A9A31
:104A70001340034352D12369012B3FD053B1022B82
:104A80004FD12A4633461168013309BA102B42F838
:104A9000041BF8D12B689A0FA4F8B63084F8B42020
:104AA000C3F340726B6884F8B520AA68C4F8B830C4
:104AB000130E84F8BC30130C84F8BD30C2F30333FA
:104AC00084F8BE30EB68190E41EA0222A4F8C02037
:104AD000C3F30742C3F30723910802F0030284F8EB
:104AE000C3201A0903F00F0384F8C21084F8C4200D
:104AF00084F8C530304612B0BDE8F0812A4633460E
:104B0000116849BA013342F8041B102BF8D1C1E7F0
:104B10004FF4E366EEE740F21576EBE740F20976F4
:104B2000E8E74FF4E166E5E7682702200800F9FFAF
:104B30000B46026C8169006800F05ABD2DE9F04F08
:104B4000054697B01C4601270026DFF80481CDE911
:104B500002121CB9204617B0BDE8F08F029B03EB90
:104B6000462A95F839303BBB17B11AF0030F23D012
:104B700004F1FF39002701244FF400720021404660
:104B800001F0EFFBCDF80480002328220CA80DF1E2
:104B90001C0B1946CDE9053301F0E3FB0023142279
:104BA0005846194601F0DDFBD5F8CC30B3F5007F4F
:104BB00010D240F20970CEE7AB6AA34236BFA4EB35
:104BC00003094FF000091C46002F14BF534643460B
:104BD0000193D9E76B6AB3F5007FEAD32846FFF764
:104BE0001FFE0028E5D14FF4007305A92846CDE942
:104BF0000834019B0A9301239C428DF81D30039BCE
:104C00000CBF11221222F318CDE90C23AA6C9207D3
:104C10004FF0010258BF5B02139258BF0D930B4B2C
:104C200015930CABCDE905B3FFF7C8FD0028C0D143
:104C300095F83930264433B92FB94FF40072414604
:104C4000504601F081FB4C4683E700BF0800F9FFA6
:104C5000682702202DE9F04F0446A7B01D464FF00B
:104C60000108DFF888910193CDE902120DB92846B9
:104C70002FE0019B5F1B029B03EB472794F8393021
:104C800053BBB8F1000F01D0BE0725D039464FF015
:104C900000080126554F4FF40072484601F054FBBE
:104CA00000230DF1480B28220DF1200A1946584621
:104CB000CDE9043301F055FB002314225046194678
:104CC00001F04FFBD4F8CC30B3F5007F0DD240F2A9
:104CD000097027B0BDE8F08FA66AAE4228BF2E4605
:104CE000B8F1000F08BF4F46DAE7636AB3F5007FFB
:104CF000EDD32046FFF794FD0028E8D12268936C9D
:104D00009805FCD4012303994FF40072012E8DF80D
:104D1000213020461993364B099208BF18221B9365
:104D200018BF1922019B0A960B440C975B1BCDE917
:104D30001223A26C91074FF0000204A958BF5B0236
:104D4000CDE904AB58BF1393FFF738FD00283CD0E2
:104D50004FF0000B0DF1700A0DAF28225946504656
:104D6000CDE906BB01F0FDFA14225946384601F0A0
:104D7000F8FA4FF4007259461C4801F0F2FA204646
:104D8000FFF74EFD0028A2D1226CA169206800F037
:104D900053FC00289BD116230422CDF8409006A98D
:104DA0001C93012320682393CDE90E23CDE9067AD5
:104DB000A369984700288AD10D4B1E9A134013B956
:104DC000D9F8006036BA002E81D094F83930AD1B86
:104DD000002B7FF44BAFB8F1000F7FF447AF4FF4D7
:104DE00000724146484601F0BCFA3FE768270220BE
:104DF0000800F9FF2DE9F04F8FB090F88C3006468F
:104E0000144601913BB990F8A15001354FF00008CC
:104E1000DFF8DC9066E090F8BE3023B1334A52F8F8
:104E200023506D0AF2D140F2317018E0AC42019B80
:104E30004FF000014FF0280204A88ABFA4EB050A36
:104E40004FF0000A2C4608EB030BCDE9021101F0EC
:104E500088FA3046FFF7E4FC20B14FF4E3600FB06E
:104E6000BDE8F08F31688A6C9205FCD4B26C0BF10E
:104E7000FF370021304693074FF02002274402916C
:104E800058BF4FEA4B2B02A958BF7F02CDF8349090
:104E9000CDE9042B01220DF1100B0B92CDF80CB0D3
:104EA000FFF78CFC0246C0B92121CDE9020BCDE908
:104EB0000417304602A9FFF781FC024668B9262193
:104EC000CDF83490CDE904100221CDE9020B0B910D
:104ED000304602A9FFF772FC10B140F20970BEE73C
:104EE000A0445446002CA1D12046B8E7D86C03005A
:104EF0000800F9FF2DE9F04F01238DB0044600258D
:104F00004FF4481740F20C78DFF81C9180F8D3304A
:104F1000A169206800F0B8FB014628B140F2137582
:104F200028460DB0BDE8F08F0090202204A802AE04
:104F300001F017FA4FF4D57308204FF00A0A0196D2
:104F4000CDE9020309230993A369694620689847BC
:104F500020B99DF81030AA2B18BF4046BAF1010ABB
:104F60001FD00028F0D1A36C4F4643F00803A36480
:104F70000021202204A840F2E93A4FF0010BCDE9CC
:104F8000001101F0EEF92923CDE90237042309933A
:104F9000BAF1010A0ED1BBF1000F2BD040F214750B
:104FA000BEE70028DFD0A169206800F06DFB002873
:104FB000DED0B3E70022A169206800F03DFB0028A5
:104FC000E6D1A3696946CDE9000620689847834683
:104FD0000028E3D1049B002BDADA5900636742BF53
:104FE000A26C42F00202A264DA0142BFA26C42F05B
:104FF0002002A264A36C9B0692D5A169206800F0F0
:105000007BFB40F22A730546984289D040F22B730D
:10501000984204D1A36C23F02003A36478E7032310
:1050200084F8D3307CE700BF000032402DE9F04126
:105030000446002692B02546866431460068FEF795
:10504000A5F8C44AD4E90001FDF790FFE06355F8E4
:105050001C0B6421FDF744FF20682946FEF7E6F9A2
:105060002046FFF747FF40F22A730546984217D0C3
:105070002422314603964FF003080DEB020008ADE1
:1050800001F06FF903AE0223CDF83C800495314660
:1050900008932068A3699847074628B140F20D7528
:1050A000284612B0BDE8F08110220AA904F14C0094
:1050B00001F04AF90D9B0B991A0E84F87C30039786
:1050C00084F878201A0A0C9BA4F87A201A0E84F827
:1050D000803084F87D201A0C84F87E201A0A0B0E8A
:1050E00084F87F2084F881300A9B1A0EC3F30B23C7
:1050F00042EA0122A4F888303946C4F884202422E8
:105100000DEB020001F02DF908233146CDF8208087
:105110000F930495A369206898470146002840F042
:1051200012820A9F202203900AA83B0C3F0C2364A2
:1051300001F017F909233F04CDF83C80089331466C
:1051400009970495A36920689847002840F0DB8000
:1051500010220AA904F15C0001F0F6F80D9BBDF8DD
:105160003420990F1B0C52BA84F88C1084F88D30BF
:105170000C9BA4F88E201A0DC3F30340A4F89020D2
:105180001A0484F8920042BFB4F8942042F001025D
:10519000A4F894205F0442BFB4F8942042F00102C6
:1051A000A4F894209A0442BFB4F8942042F0040278
:1051B000A4F89420DF0442BFB4F8942042F008021F
:1051C000A4F894200B9A002953D0012900F0828082
:1051D000510442BFB4F8943043F01003A4F8943063
:1051E000C2F3C61302F07F0284F8A1300A9B84F850
:1051F000A220C3F3826284F8A320C3F3835284F80D
:10520000A4209A0242BFB4F8942042F04002A4F8CD
:1052100094201F0442BFB4F8942042F08002A4F806
:1052200094205804204642BFB4F8942042F480727F
:10523000A4F8942099044FF0010142BFB4F89420DF
:1052400042F40072A4F89420DA04C3F3812348BF27
:10525000B4F8942084F8A53044BF42F48062A4F8E6
:105260009420FFF765FC074600284FD04FF4E26515
:1052700016E740F6FC71092801EA8303C2F3C26114
:1052800084F89C10C2F3026143EA927384F89D1083
:105290004FEA1251C4F8983003F1010301F00E01F6
:1052A00084F89E10C2F3824184F89F10C2F3C23189
:1052B00084F8A01001F1020103FA01F34FF4007128
:1052C000C4F8C830C4F8CC1082D083405B0AC4F85C
:1052D000C8307DE71B044FF4007103F47C13C4F85D
:1052E000CC104FF6FE7143EA12438B42C4F898305B
:1052F00003F1010388BFA16C4FEA832384BF41F00F
:105300001001A164E3E740F20F75C9E6124ADFF825
:105310004C80D4E90001FDF729FE3946E0632822DC
:105320002846CDE9017701F01CF8394614223046B1
:1053300001F017F839464FF40072404601F011F8B9
:10534000226CA1694746206800F076F940B140F22E
:105350001175A5E6801A060040787D0168270220B5
:1053600033230822099001A908930123CDF818805E
:105370000F932068CDE90423CDE90165A36998471F
:105380000028E4D1714B0A9A1340002B5FD12369A6
:10539000012B00F0948053B1022BD8D1D8F8003003
:1053A0001BBAC8F80030D8F804301BBA7B606849D3
:1053B000082204F16C0000F0C7FF3B681802C3F339
:1053C00007404FEA137248BFB4F8AA1084F8A82027
:1053D000C3F3036248BF41F0010184F8A92048BF2C
:1053E000A4F8AA10C3F3025184F8AC1000F00F0126
:1053F00084F8AD10190442BFB4F8AA1041F00201BC
:10540000A4F8AA10990ADBB2012A01F01E0184F85F
:10541000AE1003F0030184F8AF107968C4F8B0103F
:1054200059D0002A54D0022A57D0420742BFA26C5A
:1054300042F00402A264DF0742BFA26C42F0800285
:10544000A264980703D5A36C43F04003A364E36A06
:10545000DB0624D5A36C590721D500212768D4F891
:105460001880282228460391716000F07AFF226C90
:105470004146384600F0E0F8002836D106230127DF
:105480003146089302230F970993A369CDE90305D9
:105490002068984748BB39462068FDF777FE4FF4EF
:1054A0000072A169206800F005F90546002847D17F
:1054B00094F8D330032B1BD140F21B75F0E5D8F8DC
:1054C00000305BBAC8F80030D8F804305BBA6DE73A
:1054D00001226264A9E70222FBE704226264B4F8B5
:1054E000AA209107A1D50822F3E740F21275D7E56B
:1054F000E36ADA0703D42046FFF782FAD0E50146D3
:1055000001222046FFF7E2F9B0B90123114A84F8DD
:10551000D030D4E90001FDF729FD94F8D030E063E4
:10552000023B012BE7D840231322A169206800F039
:1055300015F90028DFD0BFE7B0F5E16FBCD1DAE79D
:1055400040F20A75ACE540F20E75A9E50800F9FFD6
:105550006827022080F0FA020021FFF7E9BA90F8EC
:10556000383010B5044623B10123002084F83830C8
:1055700010BD016B00F09AF90028F5D00120F7E783
:1055800010B5044600F0C6F9002384F8383010BD89
:10559000006800F0BDB990F8383010B504462BB95A
:1055A000FFF7DDFF20B140F22F7010BDFFF7F0FFD5
:1055B000616B206800F058F90122216B206800F02F
:1055C00033F940B92068616B00F05FF92046BDE80F
:1055D0001040FFF72BBD4FF4E660E6E710B5044638
:1055E000FFF7BAFF2046BDE81040FFF7C9BF000033
:1055F000F0B58DB00D4600210646144603A82422BE
:105600001F46009100F0ADFE072302931FB1240452
:1056100001230394099302AB694630460193A847DE
:10562000049A044B1340034340F2097008BF002062
:105630000DB0F0BD0800F9FF70B58CB00D4600212B
:105640000646144604A82022009100F08AFE372363
:10565000240469460293012330460394099302AB64
:105660000193A84758B9049A064B13403BB912F06E
:10567000200F40F20C7308BF18460CB070BD40F20A
:105680000970FAE70800F9FF30B58DB005460C4601
:10569000002102AB28220091184600F062FE694604
:1056A00001902846A04740F20973002818BF184609
:1056B0000DB030BD70B58CB00C46002105461646C5
:1056C00004A82022009100F04CFE102369462846D1
:1056D000CDE902360123099302AB0193A047049A56
:1056E000044B1340034340F2097008BF00200CB084
:1056F00070BD00BF0800F9FF30B58DB00D46002128
:105700000446242203A8009100F02BFE0B236946D7
:10571000204602930123099302AB0193A847D0B915
:105720002369642023F001032361A36C00F07AF85D
:1057300023690A2043F00103236100F073F80A2073
:10574000A36C00F06FF80A2000F06CF8A36C40F234
:105750002A700DB030BD40F20970FAE72DE9F04330
:10576000B3B015462422804603AC0F460DEB020071
:10577000002112AE994600F0F4FD142200212046CB
:1057800000F0EFFD80220021304600F0EAFD089590
:1057900008AB012501A940460F950696CDE90143C6
:1057A000CDE90495B847044630B9284600F03AF8E8
:1057B000204633B0BDE8F08340F20974F8E70000FA
:1057C000044B5A7C044B1AB100221A7018787047A7
:1057D0000122FAE700C00840042602207FB5104DE0
:1057E0000C464FF4807200210646284600F0B9FDB1
:1057F0000C22002101A800F0B4FD236833B140F26F
:1058000001130295ADF8043040230393224601A909
:105810003046FDF7FFFC003018BF012004B070BD1A
:1058200008260220FCF784BAF8B50646154601B1F1
:1058300009780C4C2378AB4206D0012731B9FFF729
:10584000BFFF2378AB42F9D10020F8BD022904D173
:10585000B36CDA05F5D52770F3E7336DDB07F0D4C9
:10586000F9E700BF0426022010B50C4631B18B6861
:105870009847E068BDE81040FCF75ABA436823F047
:10588000010343604FF4FA70F4E710B50C4631B1F0
:105890000B6898476068BDE81040FCF749BA436858
:1058A00043F0010343604FF4FA70F4E7022337B585
:1058B0000361FF2304460D4603726FF07F4300F13E
:1058C0000801C36043610068FDF776FC0E4BA361DD
:1058D0000DB12B7893B94FF080434FF48032002103
:1058E0000A48C3F8202201AB1122ADF80410FDF7DD
:1058F000BDF8FFF765FF002003B030BD2268536A92
:1059000043F001035362F6E7DD57030000C008408F
:105910007047000008B50068FDF79CFD014B0022B0
:105920001A7008BD0426022000487047082702208C
:1059300010B5064C4FF0FF312046FEF7DDFD204646
:10594000034A0449BDE81040FCF77DB9082702204E
:1059500000220220B144030008B5FEF7CFFBB0FAE5
:1059600080F0400908BDFEF7CFBB000010B578B14C
:105970004FF0FF33084C2360FEF748FA00B240B9FD
:105980002068421C01D130BFFAE7831F58425841BA
:1059900010BD0020FCE700BF182202202DE9F043D3
:1059A0000446A5B018B9012025B0BDE8F083FFF783
:1059B000DDFF0028F7D0D4E90223134346D009A81D
:1059C0004FF00008FBF7C0FB002109A8204FFBF7B0
:1059D00017FC2022002101A800F0C3FCA568FDB13E
:1059E000B8F1000F1CD1B5F5804FA1682E4638469E
:1059F00028BF4FF4804601F561313246491BFEF75E
:105A0000C7FB32463946804609A8A5EB0609FBF7D5
:105A1000E0FC701BA1684D46084400F073F9DEE716
:105A200001A909A81034FBF759FD09A8FBF790FB61
:105A3000202201A9204600F079FC0028B4D020469D
:105A400000F03CF901A800F039F9ACE70220ABE71F
:105A50006829022070B5054604464618A64204D9B6
:105A60002046FEF7A3FB0444F8E7601B70BD00006E
:105A700070B5702105464FF46030FFF7EBFF00F57D
:105A800060330146B3F5613F08D24FF46030FEF752
:105A9000B5FB98B92E464FF4613403E005F58066F6
:105AA0004FF4603431462046FFF7D4FF0B4B021908
:105AB0009A4207D831462046FEF7A0FBB0FA80F0A4
:105AC000400970BD4FF4B823A2F56132294604485D
:105AD000FEF76EF94FF0FF30F0E700BF0044090019
